{
  "contractName": "SimpleVoting",
  "abi": [
    {
      "inputs": [],
      "stateMutability": "nonpayable",
      "type": "constructor"
    },
    {
      "anonymous": false,
      "inputs": [
        {
          "indexed": false,
          "internalType": "uint256",
          "name": "proposalId",
          "type": "uint256"
        }
      ],
      "name": "ProposalRegisteredEvent",
      "type": "event"
    },
    {
      "anonymous": false,
      "inputs": [],
      "name": "ProposalsRegistrationEndedEvent",
      "type": "event"
    },
    {
      "anonymous": false,
      "inputs": [],
      "name": "ProposalsRegistrationStartedEvent",
      "type": "event"
    },
    {
      "anonymous": false,
      "inputs": [
        {
          "indexed": false,
          "internalType": "address",
          "name": "voter",
          "type": "address"
        },
        {
          "indexed": false,
          "internalType": "uint256",
          "name": "proposalId",
          "type": "uint256"
        }
      ],
      "name": "VotedEvent",
      "type": "event"
    },
    {
      "anonymous": false,
      "inputs": [
        {
          "indexed": false,
          "internalType": "address",
          "name": "voterAddress",
          "type": "address"
        }
      ],
      "name": "VoterRegisteredEvent",
      "type": "event"
    },
    {
      "anonymous": false,
      "inputs": [],
      "name": "VotesTalliedEvent",
      "type": "event"
    },
    {
      "anonymous": false,
      "inputs": [],
      "name": "VotingSessionEndedEvent",
      "type": "event"
    },
    {
      "anonymous": false,
      "inputs": [],
      "name": "VotingSessionStartedEvent",
      "type": "event"
    },
    {
      "anonymous": false,
      "inputs": [
        {
          "indexed": false,
          "internalType": "enum SimpleVoting.WorkflowStatus",
          "name": "previousStatus",
          "type": "uint8"
        },
        {
          "indexed": false,
          "internalType": "enum SimpleVoting.WorkflowStatus",
          "name": "newStatus",
          "type": "uint8"
        }
      ],
      "name": "WorkflowStatusChangeEvent",
      "type": "event"
    },
    {
      "inputs": [],
      "name": "administrator",
      "outputs": [
        {
          "internalType": "address",
          "name": "",
          "type": "address"
        }
      ],
      "stateMutability": "view",
      "type": "function",
      "constant": true
    },
    {
      "inputs": [
        {
          "internalType": "uint256",
          "name": "",
          "type": "uint256"
        }
      ],
      "name": "proposals",
      "outputs": [
        {
          "internalType": "string",
          "name": "description",
          "type": "string"
        },
        {
          "internalType": "uint256",
          "name": "voteCount",
          "type": "uint256"
        }
      ],
      "stateMutability": "view",
      "type": "function",
      "constant": true
    },
    {
      "inputs": [
        {
          "internalType": "uint256",
          "name": "",
          "type": "uint256"
        }
      ],
      "name": "voterAddresses",
      "outputs": [
        {
          "internalType": "address",
          "name": "",
          "type": "address"
        }
      ],
      "stateMutability": "view",
      "type": "function",
      "constant": true
    },
    {
      "inputs": [],
      "name": "voterCount",
      "outputs": [
        {
          "internalType": "uint32",
          "name": "",
          "type": "uint32"
        }
      ],
      "stateMutability": "view",
      "type": "function",
      "constant": true
    },
    {
      "inputs": [
        {
          "internalType": "address",
          "name": "",
          "type": "address"
        }
      ],
      "name": "voters",
      "outputs": [
        {
          "internalType": "bool",
          "name": "isRegistered",
          "type": "bool"
        },
        {
          "internalType": "bool",
          "name": "hasVoted",
          "type": "bool"
        },
        {
          "internalType": "uint256",
          "name": "votedProposalId",
          "type": "uint256"
        }
      ],
      "stateMutability": "view",
      "type": "function",
      "constant": true
    },
    {
      "inputs": [],
      "name": "workflowStatus",
      "outputs": [
        {
          "internalType": "enum SimpleVoting.WorkflowStatus",
          "name": "",
          "type": "uint8"
        }
      ],
      "stateMutability": "view",
      "type": "function",
      "constant": true
    },
    {
      "inputs": [
        {
          "internalType": "address",
          "name": "_voterAddress",
          "type": "address"
        }
      ],
      "name": "registerVoter",
      "outputs": [],
      "stateMutability": "nonpayable",
      "type": "function"
    },
    {
      "inputs": [],
      "name": "startProposalsRegistration",
      "outputs": [],
      "stateMutability": "nonpayable",
      "type": "function"
    },
    {
      "inputs": [],
      "name": "endProposalsRegistration",
      "outputs": [],
      "stateMutability": "nonpayable",
      "type": "function"
    },
    {
      "inputs": [],
      "name": "startVotingSession",
      "outputs": [],
      "stateMutability": "nonpayable",
      "type": "function"
    },
    {
      "inputs": [],
      "name": "endVotingSession",
      "outputs": [],
      "stateMutability": "nonpayable",
      "type": "function"
    },
    {
      "inputs": [
        {
          "internalType": "string",
          "name": "proposalDescription",
          "type": "string"
        }
      ],
      "name": "registerProposal",
      "outputs": [],
      "stateMutability": "nonpayable",
      "type": "function"
    },
    {
      "inputs": [
        {
          "internalType": "uint256",
          "name": "proposalId",
          "type": "uint256"
        }
      ],
      "name": "vote",
      "outputs": [],
      "stateMutability": "nonpayable",
      "type": "function"
    },
    {
      "inputs": [],
      "name": "tallyVotes",
      "outputs": [],
      "stateMutability": "nonpayable",
      "type": "function"
    },
    {
      "inputs": [],
      "name": "getVotersNumber",
      "outputs": [
        {
          "internalType": "uint32",
          "name": "",
          "type": "uint32"
        }
      ],
      "stateMutability": "view",
      "type": "function",
      "constant": true
    },
    {
      "inputs": [],
      "name": "getVoters",
      "outputs": [
        {
          "components": [
            {
              "internalType": "bool",
              "name": "isRegistered",
              "type": "bool"
            },
            {
              "internalType": "bool",
              "name": "hasVoted",
              "type": "bool"
            },
            {
              "internalType": "uint256",
              "name": "votedProposalId",
              "type": "uint256"
            }
          ],
          "internalType": "struct SimpleVoting.Voter[]",
          "name": "",
          "type": "tuple[]"
        }
      ],
      "stateMutability": "view",
      "type": "function",
      "constant": true
    },
    {
      "inputs": [],
      "name": "getAllProposals",
      "outputs": [
        {
          "components": [
            {
              "internalType": "string",
              "name": "description",
              "type": "string"
            },
            {
              "internalType": "uint256",
              "name": "voteCount",
              "type": "uint256"
            }
          ],
          "internalType": "struct SimpleVoting.Proposal[]",
          "name": "",
          "type": "tuple[]"
        }
      ],
      "stateMutability": "view",
      "type": "function",
      "constant": true
    },
    {
      "inputs": [],
      "name": "getProposalsNumber",
      "outputs": [
        {
          "internalType": "uint256",
          "name": "",
          "type": "uint256"
        }
      ],
      "stateMutability": "view",
      "type": "function",
      "constant": true
    },
    {
      "inputs": [
        {
          "internalType": "uint256",
          "name": "index",
          "type": "uint256"
        }
      ],
      "name": "getProposalDescription",
      "outputs": [
        {
          "internalType": "string",
          "name": "",
          "type": "string"
        }
      ],
      "stateMutability": "view",
      "type": "function",
      "constant": true
    },
    {
      "inputs": [],
      "name": "getWinningProposalId",
      "outputs": [
        {
          "internalType": "uint256",
          "name": "",
          "type": "uint256"
        }
      ],
      "stateMutability": "view",
      "type": "function",
      "constant": true
    },
    {
      "inputs": [],
      "name": "getWinningProposalDescription",
      "outputs": [
        {
          "internalType": "string",
          "name": "",
          "type": "string"
        }
      ],
      "stateMutability": "view",
      "type": "function",
      "constant": true
    },
    {
      "inputs": [],
      "name": "getWinningProposalVoteCounts",
      "outputs": [
        {
          "internalType": "uint256",
          "name": "",
          "type": "uint256"
        }
      ],
      "stateMutability": "view",
      "type": "function",
      "constant": true
    },
    {
      "inputs": [
        {
          "internalType": "address",
          "name": "_voterAddress",
          "type": "address"
        }
      ],
      "name": "isRegisteredVoter",
      "outputs": [
        {
          "internalType": "bool",
          "name": "",
          "type": "bool"
        }
      ],
      "stateMutability": "view",
      "type": "function",
      "constant": true
    },
    {
      "inputs": [
        {
          "internalType": "address",
          "name": "_address",
          "type": "address"
        }
      ],
      "name": "isAdministrator",
      "outputs": [
        {
          "internalType": "bool",
          "name": "",
          "type": "bool"
        }
      ],
      "stateMutability": "view",
      "type": "function",
      "constant": true
    },
    {
      "inputs": [],
      "name": "getWorkflowStatus",
      "outputs": [
        {
          "internalType": "enum SimpleVoting.WorkflowStatus",
          "name": "",
          "type": "uint8"
        }
      ],
      "stateMutability": "view",
      "type": "function",
      "constant": true
    }
  ],
  "bytecode": "0x60806040525f60025f6101000a81548163ffffffff021916908363ffffffff16021790555034801562000030575f80fd5b50335f806101000a81548173ffffffffffffffffffffffffffffffffffffffff021916908373ffffffffffffffffffffffffffffffffffffffff1602179055505f8060146101000a81548160ff02191690836005811115620000975762000096620000a2565b5b0217905550620000cf565b7f4e487b71000000000000000000000000000000000000000000000000000000005f52602160045260245ffd5b612e6d80620000dd5f395ff3fe608060405234801561000f575f80fd5b5060043610610171575f3560e01c8063a1edffa2116100dc578063dd0e237311610095578063ee74c6781161006f578063ee74c67814610404578063f53d0a8e1461040e578063f75d64a61461042c578063fd1e64ca1461044a57610171565b8063dd0e2373146103ac578063e09b8c79146103dc578063e81e977b146103e657610171565b8063a1edffa2146102e6578063a3ec138d14610304578063a7bfab1614610336578063cceb68f514610340578063cdd722531461035e578063da36cffe1461037c57610171565b8063378a21781161012e578063378a21781461025c57806337d05ddc1461026657806338db6dd31461028457806341b1b046146102a057806342169e48146102be5780636c297445146102dc57610171565b80630121b93f14610175578063013cf08b146101915780630a2eb301146101c25780631af86909146101f2578063229acb17146102105780632f95355b14610240575b5f80fd5b61018f600480360381019061018a9190611d01565b610468565b005b6101ab60048036038101906101a69190611d01565b610707565b6040516101b9929190611dc5565b60405180910390f35b6101dc60048036038101906101d79190611e4d565b6107bc565b6040516101e99190611e92565b60405180910390f35b6101fa610813565b6040516102079190611eab565b60405180910390f35b61022a60048036038101906102259190611d01565b6108b3565b6040516102379190611ec4565b60405180910390f35b61025a60048036038101906102559190612010565b610965565b005b610264610b0d565b005b61026e610da6565b60405161027b9190611ec4565b60405180910390f35b61029e60048036038101906102999190611e4d565b610ecc565b005b6102a8611225565b6040516102b59190611eab565b60405180910390f35b6102c6611231565b6040516102d39190612075565b60405180910390f35b6102e4611246565b005b6102ee6113e8565b6040516102fb9190612101565b60405180910390f35b61031e60048036038101906103199190611e4d565b6113fa565b60405161032d9392919061211a565b60405180910390f35b61033e611438565b005b6103486115a3565b604051610355919061229b565b60405180910390f35b610366611698565b60405161037391906123b2565b60405180910390f35b61039660048036038101906103919190611e4d565b6117fe565b6040516103a39190611e92565b60405180910390f35b6103c660048036038101906103c19190611d01565b611852565b6040516103d391906123e1565b60405180910390f35b6103e461188d565b005b6103ee611a2d565b6040516103fb9190611eab565b60405180910390f35b61040c611aaa565b005b610416611c4b565b60405161042391906123e1565b60405180910390f35b610434611c6e565b6040516104419190612101565b60405180910390f35b610452611c83565b60405161045f9190612075565b60405180910390f35b60015f3373ffffffffffffffffffffffffffffffffffffffff1673ffffffffffffffffffffffffffffffffffffffff1681526020019081526020015f205f015f9054906101000a900460ff166104f3576040517f08c379a00000000000000000000000000000000000000000000000000000000081526004016104ea9061246a565b60405180910390fd5b600360058111156105075761050661208e565b5b5f60149054906101000a900460ff1660058111156105285761052761208e565b5b14610568576040517f08c379a000000000000000000000000000000000000000000000000000000000815260040161055f906124f8565b60405180910390fd5b60015f3373ffffffffffffffffffffffffffffffffffffffff1673ffffffffffffffffffffffffffffffffffffffff1681526020019081526020015f205f0160019054906101000a900460ff16156105f5576040517f08c379a00000000000000000000000000000000000000000000000000000000081526004016105ec90612560565b60405180910390fd5b6001805f3373ffffffffffffffffffffffffffffffffffffffff1673ffffffffffffffffffffffffffffffffffffffff1681526020019081526020015f205f0160016101000a81548160ff0219169083151502179055508060015f3373ffffffffffffffffffffffffffffffffffffffff1673ffffffffffffffffffffffffffffffffffffffff1681526020019081526020015f20600101819055506001600482815481106106a7576106a661257e565b5b905f5260205f2090600202016001015f8282546106c491906125d8565b925050819055507f0902475a854b82199b4f5d6b81327ec4c4ec077ce0356a106ddc2748c5285ed333826040516106fc92919061260b565b60405180910390a150565b60048181548110610716575f80fd5b905f5260205f2090600202015f91509050805f0180546107359061265f565b80601f01602080910402602001604051908101604052809291908181526020018280546107619061265f565b80156107ac5780601f10610783576101008083540402835291602001916107ac565b820191905f5260205f20905b81548152906001019060200180831161078f57829003601f168201915b5050505050908060010154905082565b5f805f9054906101000a900473ffffffffffffffffffffffffffffffffffffffff1673ffffffffffffffffffffffffffffffffffffffff168273ffffffffffffffffffffffffffffffffffffffff16149050919050565b5f6005808111156108275761082661208e565b5b5f60149054906101000a900460ff1660058111156108485761084761208e565b5b14610888576040517f08c379a000000000000000000000000000000000000000000000000000000000815260040161087f906126ff565b60405180910390fd5b60046005548154811061089e5761089d61257e565b5b905f5260205f20906002020160010154905090565b6060600482815481106108c9576108c861257e565b5b905f5260205f2090600202015f0180546108e29061265f565b80601f016020809104026020016040519081016040528092919081815260200182805461090e9061265f565b80156109595780601f1061093057610100808354040283529160200191610959565b820191905f5260205f20905b81548152906001019060200180831161093c57829003601f168201915b50505050509050919050565b60015f3373ffffffffffffffffffffffffffffffffffffffff1673ffffffffffffffffffffffffffffffffffffffff1681526020019081526020015f205f015f9054906101000a900460ff166109f0576040517f08c379a00000000000000000000000000000000000000000000000000000000081526004016109e79061246a565b60405180910390fd5b60016005811115610a0457610a0361208e565b5b5f60149054906101000a900460ff166005811115610a2557610a2461208e565b5b14610a65576040517f08c379a0000000000000000000000000000000000000000000000000000000008152600401610a5c9061278d565b60405180910390fd5b600460405180604001604052808381526020015f815250908060018154018082558091505060019003905f5260205f2090600202015f909190919091505f820151815f019081610ab59190612948565b506020820151816001015550507fdcd2e8cd237900037efa515c36a3caa6812766647c16535dd5fc3c6fd641154c6001600480549050610af59190612a17565b604051610b029190611eab565b60405180910390a150565b5f8054906101000a900473ffffffffffffffffffffffffffffffffffffffff1673ffffffffffffffffffffffffffffffffffffffff163373ffffffffffffffffffffffffffffffffffffffff1614610b9a576040517f08c379a0000000000000000000000000000000000000000000000000000000008152600401610b9190612aba565b60405180910390fd5b60046005811115610bae57610bad61208e565b5b5f60149054906101000a900460ff166005811115610bcf57610bce61208e565b5b14610c0f576040517f08c379a0000000000000000000000000000000000000000000000000000000008152600401610c0690612b48565b60405180910390fd5b600580811115610c2257610c2161208e565b5b5f60149054906101000a900460ff166005811115610c4357610c4261208e565b5b10610c83576040517f08c379a0000000000000000000000000000000000000000000000000000000008152600401610c7a90612bd6565b60405180910390fd5b5f805f5b600480549050811015610cfc578260048281548110610ca957610ca861257e565b5b905f5260205f209060020201600101541115610ce95760048181548110610cd357610cd261257e565b5b905f5260205f2090600202016001015492508091505b8080610cf490612bf4565b915050610c87565b508060058190555060055f60146101000a81548160ff02191690836005811115610d2957610d2861208e565b5b02179055507fa1f82a14ea162408785ef8969f7cf08b2bb72b081f8d4e2eda49846e52f439c660405160405180910390a17f9474022b1c97b70d3479aafe8672c447d1837ad99ae1f735eced168a65252d1660045f60149054906101000a900460ff16604051610d9a929190612c3b565b60405180910390a15050565b6060600580811115610dbb57610dba61208e565b5b5f60149054906101000a900460ff166005811115610ddc57610ddb61208e565b5b14610e1c576040517f08c379a0000000000000000000000000000000000000000000000000000000008152600401610e13906126ff565b60405180910390fd5b600460055481548110610e3257610e3161257e565b5b905f5260205f2090600202015f018054610e4b9061265f565b80601f0160208091040260200160405190810160405280929190818152602001828054610e779061265f565b8015610ec25780601f10610e9957610100808354040283529160200191610ec2565b820191905f5260205f20905b815481529060010190602001808311610ea557829003601f168201915b5050505050905090565b5f8054906101000a900473ffffffffffffffffffffffffffffffffffffffff1673ffffffffffffffffffffffffffffffffffffffff163373ffffffffffffffffffffffffffffffffffffffff1614610f59576040517f08c379a0000000000000000000000000000000000000000000000000000000008152600401610f5090612aba565b60405180910390fd5b5f6005811115610f6c57610f6b61208e565b5b5f60149054906101000a900460ff166005811115610f8d57610f8c61208e565b5b14610fcd576040517f08c379a0000000000000000000000000000000000000000000000000000000008152600401610fc490612cf8565b60405180910390fd5b60015f8273ffffffffffffffffffffffffffffffffffffffff1673ffffffffffffffffffffffffffffffffffffffff1681526020019081526020015f205f015f9054906101000a900460ff1615611059576040517f08c379a000000000000000000000000000000000000000000000000000000000815260040161105090612d60565b60405180910390fd5b6001805f8373ffffffffffffffffffffffffffffffffffffffff1673ffffffffffffffffffffffffffffffffffffffff1681526020019081526020015f205f015f6101000a81548160ff0219169083151502179055505f60015f8373ffffffffffffffffffffffffffffffffffffffff1673ffffffffffffffffffffffffffffffffffffffff1681526020019081526020015f205f0160016101000a81548160ff0219169083151502179055505f60015f8373ffffffffffffffffffffffffffffffffffffffff1673ffffffffffffffffffffffffffffffffffffffff1681526020019081526020015f206001018190555060025f81819054906101000a900463ffffffff168092919061116c90612d7e565b91906101000a81548163ffffffff021916908363ffffffff16021790555050600381908060018154018082558091505060019003905f5260205f20015f9091909190916101000a81548173ffffffffffffffffffffffffffffffffffffffff021916908373ffffffffffffffffffffffffffffffffffffffff1602179055507f42b360c89ba65a59ac7fec024a7bbb2c21d84b5abe5b5178ba0d7e34653a81308160405161121a91906123e1565b60405180910390a150565b5f600480549050905090565b60025f9054906101000a900463ffffffff1681565b5f8054906101000a900473ffffffffffffffffffffffffffffffffffffffff1673ffffffffffffffffffffffffffffffffffffffff163373ffffffffffffffffffffffffffffffffffffffff16146112d3576040517f08c379a00000000000000000000000000000000000000000000000000000000081526004016112ca90612aba565b60405180910390fd5b600160058111156112e7576112e661208e565b5b5f60149054906101000a900460ff1660058111156113085761130761208e565b5b14611348576040517f08c379a000000000000000000000000000000000000000000000000000000000815260040161133f9061278d565b60405180910390fd5b60025f60146101000a81548160ff0219169083600581111561136d5761136c61208e565b5b02179055507ff629233eb3546085ffcbbb79c947a38b98b14a6915bcc004a0c1a34ae38c29d860405160405180910390a17f9474022b1c97b70d3479aafe8672c447d1837ad99ae1f735eced168a65252d1660015f60149054906101000a900460ff166040516113de929190612c3b565b60405180910390a1565b5f60149054906101000a900460ff1681565b6001602052805f5260405f205f91509050805f015f9054906101000a900460ff1690805f0160019054906101000a900460ff16908060010154905083565b5f8054906101000a900473ffffffffffffffffffffffffffffffffffffffff1673ffffffffffffffffffffffffffffffffffffffff163373ffffffffffffffffffffffffffffffffffffffff16146114c5576040517f08c379a00000000000000000000000000000000000000000000000000000000081526004016114bc90612aba565b60405180910390fd5b600360058111156114d9576114d861208e565b5b5f60149054906101000a900460ff1660058111156114fa576114f961208e565b5b14611503575f80fd5b60045f60146101000a81548160ff021916908360058111156115285761152761208e565b5b02179055507f86a7e3ed2917a2b5f100160b6e558c8e7ae6e4fb8f2673d860d3f11b4f345e7260405160405180910390a17f9474022b1c97b70d3479aafe8672c447d1837ad99ae1f735eced168a65252d1660035f60149054906101000a900460ff16604051611599929190612c3b565b60405180910390a1565b60606004805480602002602001604051908101604052809291908181526020015f905b8282101561168f578382905f5260205f2090600202016040518060400160405290815f820180546115f69061265f565b80601f01602080910402602001604051908101604052809291908181526020018280546116229061265f565b801561166d5780601f106116445761010080835404028352916020019161166d565b820191905f5260205f20905b81548152906001019060200180831161165057829003601f168201915b50505050508152602001600182015481525050815260200190600101906115c6565b50505050905090565b60605f60038054905067ffffffffffffffff8111156116ba576116b9611eec565b5b6040519080825280602002602001820160405280156116f357816020015b6116e0611c9b565b8152602001906001900390816116d85790505b5090505f5b6003805490508110156117f65760015f6003838154811061171c5761171b61257e565b5b905f5260205f20015f9054906101000a900473ffffffffffffffffffffffffffffffffffffffff1673ffffffffffffffffffffffffffffffffffffffff1673ffffffffffffffffffffffffffffffffffffffff1681526020019081526020015f206040518060600160405290815f82015f9054906101000a900460ff161515151581526020015f820160019054906101000a900460ff161515151581526020016001820154815250508282815181106117d8576117d761257e565b5b602002602001018190525080806117ee90612bf4565b9150506116f8565b508091505090565b5f60015f8373ffffffffffffffffffffffffffffffffffffffff1673ffffffffffffffffffffffffffffffffffffffff1681526020019081526020015f205f015f9054906101000a900460ff169050919050565b60038181548110611861575f80fd5b905f5260205f20015f915054906101000a900473ffffffffffffffffffffffffffffffffffffffff1681565b5f8054906101000a900473ffffffffffffffffffffffffffffffffffffffff1673ffffffffffffffffffffffffffffffffffffffff163373ffffffffffffffffffffffffffffffffffffffff161461191a576040517f08c379a000000000000000000000000000000000000000000000000000000000815260040161191190612aba565b60405180910390fd5b5f600581111561192d5761192c61208e565b5b5f60149054906101000a900460ff16600581111561194e5761194d61208e565b5b1461198e576040517f08c379a000000000000000000000000000000000000000000000000000000000815260040161198590612cf8565b60405180910390fd5b60015f60146101000a81548160ff021916908360058111156119b3576119b261208e565b5b02179055507f65b51a6e225dbda234ac3ca54831842456809aa60205dd84e758670106b4a6f360405160405180910390a17f9474022b1c97b70d3479aafe8672c447d1837ad99ae1f735eced168a65252d165f8060149054906101000a900460ff16604051611a23929190612c3b565b60405180910390a1565b5f600580811115611a4157611a4061208e565b5b5f60149054906101000a900460ff166005811115611a6257611a6161208e565b5b14611aa2576040517f08c379a0000000000000000000000000000000000000000000000000000000008152600401611a99906126ff565b60405180910390fd5b600554905090565b5f8054906101000a900473ffffffffffffffffffffffffffffffffffffffff1673ffffffffffffffffffffffffffffffffffffffff163373ffffffffffffffffffffffffffffffffffffffff1614611b37576040517f08c379a0000000000000000000000000000000000000000000000000000000008152600401611b2e90612aba565b60405180910390fd5b60026005811115611b4b57611b4a61208e565b5b5f60149054906101000a900460ff166005811115611b6c57611b6b61208e565b5b14611bac576040517f08c379a0000000000000000000000000000000000000000000000000000000008152600401611ba390612e19565b60405180910390fd5b60035f60146101000a81548160ff02191690836005811115611bd157611bd061208e565b5b02179055507ffca8377aff3a08252b769c58e6769a534922eabaaf9952691ea9cfcaed41fbd860405160405180910390a17f9474022b1c97b70d3479aafe8672c447d1837ad99ae1f735eced168a65252d165f8060149054906101000a900460ff16604051611c41929190612c3b565b60405180910390a1565b5f8054906101000a900473ffffffffffffffffffffffffffffffffffffffff1681565b5f8060149054906101000a900460ff16905090565b5f60025f9054906101000a900463ffffffff16905090565b60405180606001604052805f151581526020015f151581526020015f81525090565b5f604051905090565b5f80fd5b5f80fd5b5f819050919050565b611ce081611cce565b8114611cea575f80fd5b50565b5f81359050611cfb81611cd7565b92915050565b5f60208284031215611d1657611d15611cc6565b5b5f611d2384828501611ced565b91505092915050565b5f81519050919050565b5f82825260208201905092915050565b5f5b83811015611d63578082015181840152602081019050611d48565b5f8484015250505050565b5f601f19601f8301169050919050565b5f611d8882611d2c565b611d928185611d36565b9350611da2818560208601611d46565b611dab81611d6e565b840191505092915050565b611dbf81611cce565b82525050565b5f6040820190508181035f830152611ddd8185611d7e565b9050611dec6020830184611db6565b9392505050565b5f73ffffffffffffffffffffffffffffffffffffffff82169050919050565b5f611e1c82611df3565b9050919050565b611e2c81611e12565b8114611e36575f80fd5b50565b5f81359050611e4781611e23565b92915050565b5f60208284031215611e6257611e61611cc6565b5b5f611e6f84828501611e39565b91505092915050565b5f8115159050919050565b611e8c81611e78565b82525050565b5f602082019050611ea55f830184611e83565b92915050565b5f602082019050611ebe5f830184611db6565b92915050565b5f6020820190508181035f830152611edc8184611d7e565b905092915050565b5f80fd5b5f80fd5b7f4e487b71000000000000000000000000000000000000000000000000000000005f52604160045260245ffd5b611f2282611d6e565b810181811067ffffffffffffffff82111715611f4157611f40611eec565b5b80604052505050565b5f611f53611cbd565b9050611f5f8282611f19565b919050565b5f67ffffffffffffffff821115611f7e57611f7d611eec565b5b611f8782611d6e565b9050602081019050919050565b828183375f83830152505050565b5f611fb4611faf84611f64565b611f4a565b905082815260208101848484011115611fd057611fcf611ee8565b5b611fdb848285611f94565b509392505050565b5f82601f830112611ff757611ff6611ee4565b5b8135612007848260208601611fa2565b91505092915050565b5f6020828403121561202557612024611cc6565b5b5f82013567ffffffffffffffff81111561204257612041611cca565b5b61204e84828501611fe3565b91505092915050565b5f63ffffffff82169050919050565b61206f81612057565b82525050565b5f6020820190506120885f830184612066565b92915050565b7f4e487b71000000000000000000000000000000000000000000000000000000005f52602160045260245ffd5b600681106120cc576120cb61208e565b5b50565b5f8190506120dc826120bb565b919050565b5f6120eb826120cf565b9050919050565b6120fb816120e1565b82525050565b5f6020820190506121145f8301846120f2565b92915050565b5f60608201905061212d5f830186611e83565b61213a6020830185611e83565b6121476040830184611db6565b949350505050565b5f81519050919050565b5f82825260208201905092915050565b5f819050602082019050919050565b5f82825260208201905092915050565b5f61219282611d2c565b61219c8185612178565b93506121ac818560208601611d46565b6121b581611d6e565b840191505092915050565b6121c981611cce565b82525050565b5f604083015f8301518482035f8601526121e98282612188565b91505060208301516121fe60208601826121c0565b508091505092915050565b5f61221483836121cf565b905092915050565b5f602082019050919050565b5f6122328261214f565b61223c8185612159565b93508360208202850161224e85612169565b805f5b85811015612289578484038952815161226a8582612209565b94506122758361221c565b925060208a01995050600181019050612251565b50829750879550505050505092915050565b5f6020820190508181035f8301526122b38184612228565b905092915050565b5f81519050919050565b5f82825260208201905092915050565b5f819050602082019050919050565b6122ed81611e78565b82525050565b606082015f8201516123075f8501826122e4565b50602082015161231a60208501826122e4565b50604082015161232d60408501826121c0565b50505050565b5f61233e83836122f3565b60608301905092915050565b5f602082019050919050565b5f612360826122bb565b61236a81856122c5565b9350612375836122d5565b805f5b838110156123a557815161238c8882612333565b97506123978361234a565b925050600181019050612378565b5085935050505092915050565b5f6020820190508181035f8301526123ca8184612356565b905092915050565b6123db81611e12565b82525050565b5f6020820190506123f45f8301846123d2565b92915050565b7f7468652063616c6c6572206f6620746869732066756e6374696f6e206d7573745f8201527f2062652061207265676973746572656420766f74657200000000000000000000602082015250565b5f612454603683611d36565b915061245f826123fa565b604082019050919050565b5f6020820190508181035f83015261248181612448565b9050919050565b7f746869732066756e6374696f6e2063616e2062652063616c6c6564206f6e6c795f8201527f20647572696e6720766f74696e672073657373696f6e00000000000000000000602082015250565b5f6124e2603683611d36565b91506124ed82612488565b604082019050919050565b5f6020820190508181035f83015261250f816124d6565b9050919050565b7f7468652063616c6c65722068617320616c726561647920766f746564000000005f82015250565b5f61254a601c83611d36565b915061255582612516565b602082019050919050565b5f6020820190508181035f8301526125778161253e565b9050919050565b7f4e487b71000000000000000000000000000000000000000000000000000000005f52603260045260245ffd5b7f4e487b71000000000000000000000000000000000000000000000000000000005f52601160045260245ffd5b5f6125e282611cce565b91506125ed83611cce565b9250828201905080821115612605576126046125ab565b5b92915050565b5f60408201905061261e5f8301856123d2565b61262b6020830184611db6565b9392505050565b7f4e487b71000000000000000000000000000000000000000000000000000000005f52602260045260245ffd5b5f600282049050600182168061267657607f821691505b60208210810361268957612688612632565b5b50919050565b7f746869732066756e6374696f6e2063616e2062652063616c6c6564206f6e6c795f8201527f20616674657220766f7465732074616c6c696564000000000000000000000000602082015250565b5f6126e9603483611d36565b91506126f48261268f565b604082019050919050565b5f6020820190508181035f830152612716816126dd565b9050919050565b7f746869732066756e6374696f6e2063616e2062652063616c6c6564206f6e6c795f8201527f20647572696e672070726f706f73616c7320726567697374726174696f6e0000602082015250565b5f612777603e83611d36565b91506127828261271d565b604082019050919050565b5f6020820190508181035f8301526127a48161276b565b9050919050565b5f819050815f5260205f209050919050565b5f6020601f8301049050919050565b5f82821b905092915050565b5f600883026128077fffffffffffffffffffffffffffffffffffffffffffffffffffffffffffffffff826127cc565b61281186836127cc565b95508019841693508086168417925050509392505050565b5f819050919050565b5f61284c61284761284284611cce565b612829565b611cce565b9050919050565b5f819050919050565b61286583612832565b61287961287182612853565b8484546127d8565b825550505050565b5f90565b61288d612881565b61289881848461285c565b505050565b5b818110156128bb576128b05f82612885565b60018101905061289e565b5050565b601f821115612900576128d1816127ab565b6128da846127bd565b810160208510156128e9578190505b6128fd6128f5856127bd565b83018261289d565b50505b505050565b5f82821c905092915050565b5f6129205f1984600802612905565b1980831691505092915050565b5f6129388383612911565b9150826002028217905092915050565b61295182611d2c565b67ffffffffffffffff81111561296a57612969611eec565b5b612974825461265f565b61297f8282856128bf565b5f60209050601f8311600181146129b0575f841561299e578287015190505b6129a8858261292d565b865550612a0f565b601f1984166129be866127ab565b5f5b828110156129e5578489015182556001820191506020850194506020810190506129c0565b86831015612a0257848901516129fe601f891682612911565b8355505b6001600288020188555050505b505050505050565b5f612a2182611cce565b9150612a2c83611cce565b9250828203905081811115612a4457612a436125ab565b5b92915050565b7f7468652063616c6c6572206f6620746869732066756e6374696f6e206d7573745f8201527f206265207468652061646d696e6973747261746f720000000000000000000000602082015250565b5f612aa4603583611d36565b9150612aaf82612a4a565b604082019050919050565b5f6020820190508181035f830152612ad181612a98565b9050919050565b7f746869732066756e6374696f6e2063616e2062652063616c6c6564206f6e6c795f8201527f20616674657220766f74696e672073657373696f6e0000000000000000000000602082015250565b5f612b32603583611d36565b9150612b3d82612ad8565b604082019050919050565b5f6020820190508181035f830152612b5f81612b26565b9050919050565b7f746869732066756e6374696f6e2063616e2062652063616c6c6564206f6e6c795f8201527f206265666f726520766f7465732074616c6c6965640000000000000000000000602082015250565b5f612bc0603583611d36565b9150612bcb82612b66565b604082019050919050565b5f6020820190508181035f830152612bed81612bb4565b9050919050565b5f612bfe82611cce565b91507fffffffffffffffffffffffffffffffffffffffffffffffffffffffffffffffff8203612c3057612c2f6125ab565b5b600182019050919050565b5f604082019050612c4e5f8301856120f2565b612c5b60208301846120f2565b9392505050565b7f746869732066756e6374696f6e2063616e2062652063616c6c6564206f6e6c795f8201527f206265666f72652070726f706f73616c7320726567697374726174696f6e206860208201527f6173207374617274656400000000000000000000000000000000000000000000604082015250565b5f612ce2604a83611d36565b9150612ced82612c62565b606082019050919050565b5f6020820190508181035f830152612d0f81612cd6565b9050919050565b7f74686520766f74657220697320616c72656164792072656769737465726564005f82015250565b5f612d4a601f83611d36565b9150612d5582612d16565b602082019050919050565b5f6020820190508181035f830152612d7781612d3e565b9050919050565b5f612d8882612057565b915063ffffffff8203612d9e57612d9d6125ab565b5b600182019050919050565b7f746869732066756e6374696f6e2063616e2062652063616c6c6564206f6e6c795f8201527f2061667465722070726f706f73616c7320726567697374726174696f6e000000602082015250565b5f612e03603d83611d36565b9150612e0e82612da9565b604082019050919050565b5f6020820190508181035f830152612e3081612df7565b905091905056fea264697066735822122066ac7ed213767f45bd4b70dbf157fc4ed93976b8dd4d1d2687473c832fafa17864736f6c63430008150033",
  "immutableReferences": {},
  "source": "// SPDX-License-Identifier: MIT\r\npragma solidity ^0.8.18;\r\n\r\ncontract SimpleVoting {\r\n    struct Proposal {\r\n        string description;\r\n        uint voteCount;\r\n    }\r\n\r\n    struct Voter {\r\n        bool isRegistered;\r\n        bool hasVoted;\r\n        uint votedProposalId;\r\n    }\r\n\r\n    enum WorkflowStatus {\r\n        RegisteringVoters,\r\n        ProposalsRegistrationStarted,\r\n        ProposalsRegistrationEnded,\r\n        VotingSessionStarted,\r\n        VotingSessionEnded,\r\n        VotesTallied\r\n    }\r\n\r\n    address public administrator;\r\n\r\n    WorkflowStatus public workflowStatus;\r\n\r\n    mapping(address => Voter) public voters;\r\n    uint32 public voterCount = 0; // Counter for the number of registered voters\r\n    address[] public voterAddresses; // Array to keep track of all registered voter addresses\r\n\r\n    Proposal[] public proposals;\r\n\r\n    uint private winningProposalId;\r\n\r\n    modifier onlyAdministrator() {\r\n        require(\r\n            msg.sender == administrator,\r\n            \"the caller of this function must be the administrator\"\r\n        );\r\n        _;\r\n    }\r\n\r\n    modifier onlyRegisteredVoter() {\r\n        require(\r\n            voters[msg.sender].isRegistered,\r\n            \"the caller of this function must be a registered voter\"\r\n        );\r\n        _;\r\n    }\r\n\r\n    modifier onlyDuringVotersRegistration() {\r\n        require(\r\n            workflowStatus == WorkflowStatus.RegisteringVoters,\r\n            \"this function can be called only before proposals registration has started\"\r\n        );\r\n        _;\r\n    }\r\n\r\n    modifier onlyDuringProposalsRegistration() {\r\n        require(\r\n            workflowStatus == WorkflowStatus.ProposalsRegistrationStarted,\r\n            \"this function can be called only during proposals registration\"\r\n        );\r\n        _;\r\n    }\r\n\r\n    modifier onlyAfterProposalsRegistrationEnded() {\r\n        require(\r\n            workflowStatus == WorkflowStatus.ProposalsRegistrationEnded,\r\n            \"this function can be called only after proposals registration\"\r\n        );\r\n        _;\r\n    }\r\n\r\n    modifier onlyAfterVotingSessionStarted() {\r\n        require (\r\n            workflowStatus == WorkflowStatus.VotingSessionStarted\r\n        );\r\n        _;\r\n    }\r\n\r\n    modifier onlyDuringVotingSession {\r\n        require(\r\n            workflowStatus == WorkflowStatus.VotingSessionStarted,\r\n            \"this function can be called only during voting session\"\r\n        );\r\n        _;\r\n    }\r\n\r\n    modifier onlyAfterVotingSession {\r\n        require(\r\n            workflowStatus == WorkflowStatus.VotingSessionEnded,\r\n            \"this function can be called only after voting session\"\r\n        );\r\n        _;\r\n    }\r\n\r\n    modifier onlyBeforeVotesTallied {\r\n        require(\r\n            workflowStatus < WorkflowStatus.VotesTallied,\r\n            \"this function can be called only before votes tallied\"\r\n        );\r\n        _;\r\n    }\r\n\r\n    modifier onlyAfterVotesTallied {\r\n        require(\r\n            workflowStatus == WorkflowStatus.VotesTallied,\r\n            \"this function can be called only after votes tallied\"\r\n        );\r\n        _;\r\n    }\r\n\r\n    event VoterRegisteredEvent(address voterAddress);\r\n    event ProposalsRegistrationStartedEvent();\r\n    event ProposalsRegistrationEndedEvent();\r\n    event ProposalRegisteredEvent(uint proposalId);\r\n    event VotingSessionStartedEvent();\r\n    event VotingSessionEndedEvent();\r\n    event VotedEvent(address voter, uint proposalId);\r\n    event VotesTalliedEvent();\r\n\r\n    event WorkflowStatusChangeEvent(\r\n        WorkflowStatus previousStatus,\r\n        WorkflowStatus newStatus\r\n    );\r\n\r\n    constructor() {\r\n        administrator = msg.sender;\r\n        workflowStatus = WorkflowStatus.RegisteringVoters;\r\n    }\r\n\r\n    function registerVoter(\r\n        address _voterAddress\r\n    ) public onlyAdministrator onlyDuringVotersRegistration {\r\n        require(\r\n            !voters[_voterAddress].isRegistered,\r\n            \"the voter is already registered\"\r\n        );\r\n\r\n        voters[_voterAddress].isRegistered = true;\r\n        voters[_voterAddress].hasVoted = false;\r\n        voters[_voterAddress].votedProposalId = 0;\r\n\r\n        voterCount++;\r\n        voterAddresses.push(_voterAddress); // Add address to the array\r\n\r\n        emit VoterRegisteredEvent(_voterAddress);\r\n    }\r\n\r\n    function startProposalsRegistration()\r\n        public\r\n        onlyAdministrator\r\n        onlyDuringVotersRegistration\r\n    {\r\n        workflowStatus = WorkflowStatus.ProposalsRegistrationStarted;\r\n\r\n        emit ProposalsRegistrationStartedEvent();\r\n        emit WorkflowStatusChangeEvent(\r\n            WorkflowStatus.RegisteringVoters,\r\n            workflowStatus\r\n        );\r\n    }\r\n\r\n    function endProposalsRegistration()\r\n        public\r\n        onlyAdministrator\r\n        onlyDuringProposalsRegistration\r\n    {\r\n        workflowStatus = WorkflowStatus.ProposalsRegistrationEnded;\r\n\r\n        emit ProposalsRegistrationEndedEvent();\r\n        emit WorkflowStatusChangeEvent(\r\n            WorkflowStatus.ProposalsRegistrationStarted,\r\n            workflowStatus\r\n        );\r\n    }\r\n\r\n    function startVotingSession()\r\n        public\r\n        onlyAdministrator\r\n        onlyAfterProposalsRegistrationEnded\r\n    {\r\n        workflowStatus = WorkflowStatus.VotingSessionStarted;\r\n\r\n        emit VotingSessionStartedEvent();\r\n        emit WorkflowStatusChangeEvent(\r\n            WorkflowStatus.RegisteringVoters,\r\n            workflowStatus\r\n        );\r\n    }\r\n\r\n    function endVotingSession()\r\n        public\r\n        onlyAdministrator\r\n        onlyAfterVotingSessionStarted\r\n    {\r\n        workflowStatus = WorkflowStatus.VotingSessionEnded;\r\n\r\n        emit VotingSessionEndedEvent();\r\n        emit WorkflowStatusChangeEvent(\r\n            WorkflowStatus.VotingSessionStarted,\r\n            workflowStatus\r\n        );\r\n    }\r\n\r\n    function registerProposal(\r\n        string memory proposalDescription\r\n    ) public onlyRegisteredVoter onlyDuringProposalsRegistration {\r\n        proposals.push(\r\n            Proposal({description: proposalDescription, voteCount: 0})\r\n        );\r\n\r\n        emit ProposalRegisteredEvent(proposals.length - 1);\r\n    }\r\n\r\n    function vote(\r\n        uint proposalId\r\n    ) public onlyRegisteredVoter onlyDuringVotingSession {\r\n        require(!voters[msg.sender].hasVoted, \"the caller has already voted\");\r\n\r\n        voters[msg.sender].hasVoted = true;\r\n        voters[msg.sender].votedProposalId = proposalId;\r\n\r\n        proposals[proposalId].voteCount += 1;\r\n\r\n        emit VotedEvent(msg.sender, proposalId);\r\n    }\r\n\r\n    function tallyVotes()\r\n        public\r\n        onlyAdministrator\r\n        onlyAfterVotingSession\r\n        onlyBeforeVotesTallied\r\n    {\r\n        uint winningVoteCount = 0;\r\n        uint winningProposalIndex = 0;\r\n\r\n        for (uint i = 0; i < proposals.length; i++) {\r\n            if (proposals[i].voteCount > winningVoteCount) {\r\n                winningVoteCount = proposals[i].voteCount;\r\n                winningProposalIndex = i;\r\n            }\r\n        }\r\n\r\n        winningProposalId = winningProposalIndex;\r\n        workflowStatus = WorkflowStatus.VotesTallied;\r\n\r\n        emit VotesTalliedEvent();\r\n        emit WorkflowStatusChangeEvent(\r\n            WorkflowStatus.VotingSessionEnded,\r\n            workflowStatus\r\n        );\r\n    }\r\n\r\n    function getVotersNumber() public view returns (uint32) {\r\n        return voterCount;\r\n    }\r\n\r\n    function getVoters() public view returns (Voter[] memory) {\r\n        Voter[] memory allVoters = new Voter[](voterAddresses.length);\r\n        for (uint i = 0; i < voterAddresses.length; i++) {\r\n            allVoters[i] = voters[voterAddresses[i]];\r\n        }\r\n        return allVoters;\r\n    }\r\n\r\n    function getAllProposals() public view returns (Proposal[] memory) {\r\n        return proposals;\r\n    }\r\n\r\n    function getProposalsNumber() public view returns (uint) {\r\n        return proposals.length;\r\n    }\r\n\r\n    function getProposalDescription(uint index) public view returns (string memory) {\r\n        return proposals[index].description;\r\n    }\r\n\r\n    function getWinningProposalId()\r\n        public\r\n        view\r\n        onlyAfterVotesTallied\r\n        returns (uint)\r\n    {\r\n        return winningProposalId;\r\n    }\r\n\r\n    function getWinningProposalDescription()\r\n        public\r\n        view\r\n        onlyAfterVotesTallied\r\n        returns (string memory)\r\n    {\r\n        return proposals[winningProposalId].description;\r\n    }\r\n\r\n    function getWinningProposalVoteCounts()\r\n        public\r\n        view\r\n        onlyAfterVotesTallied\r\n        returns (uint)\r\n    {\r\n        return proposals[winningProposalId].voteCount;\r\n    }\r\n\r\n    function isRegisteredVoter(\r\n        address _voterAddress\r\n    ) public view returns (bool) {\r\n        return voters[_voterAddress].isRegistered;\r\n    }\r\n\r\n    function isAdministrator(address _address) public view returns (bool) {\r\n        return _address == administrator;\r\n    }\r\n\r\n    function getWorkflowStatus() public view returns (WorkflowStatus) {\r\n        return workflowStatus;\r\n    }\r\n}\r\n",
  "sourcePath": "C:\\Users\\yqb18196\\Sites\\voting-dapp\\truffle\\contracts\\SimpleVoting.sol",
  "compiler": {
    "name": "solc",
    "version": "0.8.21+commit.d9974bed.Emscripten.clang"
  },
  "schemaVersion": "3.4.16",
  "updatedAt": "2024-07-23T11:23:29.781Z",
  "networkType": "ethereum",
  "devdoc": {
    "kind": "dev",
    "methods": {},
    "version": 1
  },
  "userdoc": {
    "kind": "user",
    "methods": {},
    "version": 1
  }
}