{
  "contractName": "SimpleVoting",
  "abi": [
    {
      "inputs": [],
      "stateMutability": "nonpayable",
      "type": "constructor"
    },
    {
      "anonymous": false,
      "inputs": [
        {
          "indexed": false,
          "internalType": "uint256",
          "name": "proposalId",
          "type": "uint256"
        }
      ],
      "name": "ProposalRegisteredEvent",
      "type": "event"
    },
    {
      "anonymous": false,
      "inputs": [],
      "name": "ProposalsRegistrationEndedEvent",
      "type": "event"
    },
    {
      "anonymous": false,
      "inputs": [],
      "name": "ProposalsRegistrationStartedEvent",
      "type": "event"
    },
    {
      "anonymous": false,
      "inputs": [
        {
          "indexed": false,
          "internalType": "address",
          "name": "voter",
          "type": "address"
        },
        {
          "indexed": false,
          "internalType": "uint256",
          "name": "proposalId",
          "type": "uint256"
        }
      ],
      "name": "VotedEvent",
      "type": "event"
    },
    {
      "anonymous": false,
      "inputs": [
        {
          "indexed": false,
          "internalType": "address",
          "name": "voterAddress",
          "type": "address"
        }
      ],
      "name": "VoterRegisteredEvent",
      "type": "event"
    },
    {
      "anonymous": false,
      "inputs": [],
      "name": "VotesTalliedEvent",
      "type": "event"
    },
    {
      "anonymous": false,
      "inputs": [],
      "name": "VotingSessionEndedEvent",
      "type": "event"
    },
    {
      "anonymous": false,
      "inputs": [],
      "name": "VotingSessionStartedEvent",
      "type": "event"
    },
    {
      "anonymous": false,
      "inputs": [
        {
          "indexed": false,
          "internalType": "enum SimpleVoting.WorkflowStatus",
          "name": "previousStatus",
          "type": "uint8"
        },
        {
          "indexed": false,
          "internalType": "enum SimpleVoting.WorkflowStatus",
          "name": "newStatus",
          "type": "uint8"
        }
      ],
      "name": "WorkflowStatusChangeEvent",
      "type": "event"
    },
    {
      "inputs": [],
      "name": "administrator",
      "outputs": [
        {
          "internalType": "address",
          "name": "",
          "type": "address"
        }
      ],
      "stateMutability": "view",
      "type": "function",
      "constant": true
    },
    {
      "inputs": [
        {
          "internalType": "uint256",
          "name": "",
          "type": "uint256"
        }
      ],
      "name": "proposals",
      "outputs": [
        {
          "internalType": "string",
          "name": "description",
          "type": "string"
        },
        {
          "internalType": "uint256",
          "name": "voteCount",
          "type": "uint256"
        }
      ],
      "stateMutability": "view",
      "type": "function",
      "constant": true
    },
    {
      "inputs": [
        {
          "internalType": "address",
          "name": "",
          "type": "address"
        }
      ],
      "name": "voters",
      "outputs": [
        {
          "internalType": "bool",
          "name": "isRegistered",
          "type": "bool"
        },
        {
          "internalType": "bool",
          "name": "hasVoted",
          "type": "bool"
        },
        {
          "internalType": "uint256",
          "name": "votedProposalId",
          "type": "uint256"
        },
        {
          "internalType": "address",
          "name": "addr",
          "type": "address"
        }
      ],
      "stateMutability": "view",
      "type": "function",
      "constant": true
    },
    {
      "inputs": [],
      "name": "workflowStatus",
      "outputs": [
        {
          "internalType": "enum SimpleVoting.WorkflowStatus",
          "name": "",
          "type": "uint8"
        }
      ],
      "stateMutability": "view",
      "type": "function",
      "constant": true
    },
    {
      "inputs": [
        {
          "internalType": "address",
          "name": "_voterAddress",
          "type": "address"
        }
      ],
      "name": "registerVoter",
      "outputs": [],
      "stateMutability": "nonpayable",
      "type": "function"
    },
    {
      "inputs": [],
      "name": "startProposalsRegistration",
      "outputs": [],
      "stateMutability": "nonpayable",
      "type": "function"
    },
    {
      "inputs": [],
      "name": "endProposalsRegistration",
      "outputs": [],
      "stateMutability": "nonpayable",
      "type": "function"
    },
    {
      "inputs": [],
      "name": "startVotingSession",
      "outputs": [],
      "stateMutability": "nonpayable",
      "type": "function"
    },
    {
      "inputs": [],
      "name": "endVotingSession",
      "outputs": [],
      "stateMutability": "nonpayable",
      "type": "function"
    },
    {
      "inputs": [
        {
          "internalType": "string",
          "name": "proposalDescription",
          "type": "string"
        }
      ],
      "name": "registerProposal",
      "outputs": [],
      "stateMutability": "nonpayable",
      "type": "function"
    },
    {
      "inputs": [
        {
          "internalType": "uint256",
          "name": "proposalId",
          "type": "uint256"
        }
      ],
      "name": "vote",
      "outputs": [],
      "stateMutability": "nonpayable",
      "type": "function"
    },
    {
      "inputs": [],
      "name": "tallyVotes",
      "outputs": [],
      "stateMutability": "nonpayable",
      "type": "function"
    },
    {
      "inputs": [],
      "name": "getAllProposals",
      "outputs": [
        {
          "components": [
            {
              "internalType": "string",
              "name": "description",
              "type": "string"
            },
            {
              "internalType": "uint256",
              "name": "voteCount",
              "type": "uint256"
            }
          ],
          "internalType": "struct SimpleVoting.Proposal[]",
          "name": "",
          "type": "tuple[]"
        }
      ],
      "stateMutability": "view",
      "type": "function",
      "constant": true
    },
    {
      "inputs": [],
      "name": "getProposalsNumber",
      "outputs": [
        {
          "internalType": "uint256",
          "name": "",
          "type": "uint256"
        }
      ],
      "stateMutability": "view",
      "type": "function",
      "constant": true
    },
    {
      "inputs": [
        {
          "internalType": "uint256",
          "name": "index",
          "type": "uint256"
        }
      ],
      "name": "getProposalDescription",
      "outputs": [
        {
          "internalType": "string",
          "name": "",
          "type": "string"
        }
      ],
      "stateMutability": "view",
      "type": "function",
      "constant": true
    },
    {
      "inputs": [],
      "name": "getWinningProposalId",
      "outputs": [
        {
          "internalType": "uint256",
          "name": "",
          "type": "uint256"
        }
      ],
      "stateMutability": "view",
      "type": "function",
      "constant": true
    },
    {
      "inputs": [],
      "name": "getWinningProposalDescription",
      "outputs": [
        {
          "internalType": "string",
          "name": "",
          "type": "string"
        }
      ],
      "stateMutability": "view",
      "type": "function",
      "constant": true
    },
    {
      "inputs": [],
      "name": "getWinningProposalVoteCounts",
      "outputs": [
        {
          "internalType": "uint256",
          "name": "",
          "type": "uint256"
        }
      ],
      "stateMutability": "view",
      "type": "function",
      "constant": true
    },
    {
      "inputs": [
        {
          "internalType": "address",
          "name": "_voterAddress",
          "type": "address"
        }
      ],
      "name": "isRegisteredVoter",
      "outputs": [
        {
          "internalType": "bool",
          "name": "",
          "type": "bool"
        }
      ],
      "stateMutability": "view",
      "type": "function",
      "constant": true
    },
    {
      "inputs": [
        {
          "internalType": "address",
          "name": "_address",
          "type": "address"
        }
      ],
      "name": "isAdministrator",
      "outputs": [
        {
          "internalType": "bool",
          "name": "",
          "type": "bool"
        }
      ],
      "stateMutability": "view",
      "type": "function",
      "constant": true
    },
    {
      "inputs": [],
      "name": "getWorkflowStatus",
      "outputs": [
        {
          "internalType": "enum SimpleVoting.WorkflowStatus",
          "name": "",
          "type": "uint8"
        }
      ],
      "stateMutability": "view",
      "type": "function",
      "constant": true
    }
  ],
  "bytecode": "0x608060405234801561000f575f80fd5b50335f806101000a81548173ffffffffffffffffffffffffffffffffffffffff021916908373ffffffffffffffffffffffffffffffffffffffff1602179055505f8060146101000a81548160ff021916908360058111156100735761007261007d565b5b02179055506100aa565b7f4e487b71000000000000000000000000000000000000000000000000000000005f52602160045260245ffd5b612a5080620000b85f395ff3fe608060405234801561000f575f80fd5b5060043610610135575f3560e01c80636c297445116100b6578063da36cffe1161007a578063da36cffe14610305578063e09b8c7914610335578063e81e977b1461033f578063ee74c6781461035d578063f53d0a8e14610367578063f75d64a61461038557610135565b80636c29744514610282578063a1edffa21461028c578063a3ec138d146102aa578063a7bfab16146102dd578063cceb68f5146102e757610135565b80632f95355b116100fd5780632f95355b14610204578063378a21781461022057806337d05ddc1461022a57806338db6dd31461024857806341b1b0461461026457610135565b80630121b93f14610139578063013cf08b146101555780630a2eb301146101865780631af86909146101b6578063229acb17146101d4575b5f80fd5b610153600480360381019061014e9190611a4f565b6103a3565b005b61016f600480360381019061016a9190611a4f565b610642565b60405161017d929190611b13565b60405180910390f35b6101a0600480360381019061019b9190611b9b565b6106f7565b6040516101ad9190611be0565b60405180910390f35b6101be61074e565b6040516101cb9190611bf9565b60405180910390f35b6101ee60048036038101906101e99190611a4f565b6107ee565b6040516101fb9190611c12565b60405180910390f35b61021e60048036038101906102199190611d5e565b6108a0565b005b610228610a48565b005b610232610ce1565b60405161023f9190611c12565b60405180910390f35b610262600480360381019061025d9190611b9b565b610e07565b005b61026c61113e565b6040516102799190611bf9565b60405180910390f35b61028a61114a565b005b6102946112ec565b6040516102a19190611e18565b60405180910390f35b6102c460048036038101906102bf9190611b9b565b6112fe565b6040516102d49493929190611e40565b60405180910390f35b6102e5611361565b005b6102ef6114cc565b6040516102fc9190611fcf565b60405180910390f35b61031f600480360381019061031a9190611b9b565b6115c1565b60405161032c9190611be0565b60405180910390f35b61033d611615565b005b6103476117b5565b6040516103549190611bf9565b60405180910390f35b610365611832565b005b61036f6119d3565b60405161037c9190611fef565b60405180910390f35b61038d6119f6565b60405161039a9190611e18565b60405180910390f35b60015f3373ffffffffffffffffffffffffffffffffffffffff1673ffffffffffffffffffffffffffffffffffffffff1681526020019081526020015f205f015f9054906101000a900460ff1661042e576040517f08c379a000000000000000000000000000000000000000000000000000000000815260040161042590612078565b60405180910390fd5b6003600581111561044257610441611da5565b5b5f60149054906101000a900460ff16600581111561046357610462611da5565b5b146104a3576040517f08c379a000000000000000000000000000000000000000000000000000000000815260040161049a90612106565b60405180910390fd5b60015f3373ffffffffffffffffffffffffffffffffffffffff1673ffffffffffffffffffffffffffffffffffffffff1681526020019081526020015f205f0160019054906101000a900460ff1615610530576040517f08c379a00000000000000000000000000000000000000000000000000000000081526004016105279061216e565b60405180910390fd5b6001805f3373ffffffffffffffffffffffffffffffffffffffff1673ffffffffffffffffffffffffffffffffffffffff1681526020019081526020015f205f0160016101000a81548160ff0219169083151502179055508060015f3373ffffffffffffffffffffffffffffffffffffffff1673ffffffffffffffffffffffffffffffffffffffff1681526020019081526020015f20600101819055506001600282815481106105e2576105e161218c565b5b905f5260205f2090600202016001015f8282546105ff91906121e6565b925050819055507f0902475a854b82199b4f5d6b81327ec4c4ec077ce0356a106ddc2748c5285ed33382604051610637929190612219565b60405180910390a150565b60028181548110610651575f80fd5b905f5260205f2090600202015f91509050805f0180546106709061226d565b80601f016020809104026020016040519081016040528092919081815260200182805461069c9061226d565b80156106e75780601f106106be576101008083540402835291602001916106e7565b820191905f5260205f20905b8154815290600101906020018083116106ca57829003601f168201915b5050505050908060010154905082565b5f805f9054906101000a900473ffffffffffffffffffffffffffffffffffffffff1673ffffffffffffffffffffffffffffffffffffffff168273ffffffffffffffffffffffffffffffffffffffff16149050919050565b5f60058081111561076257610761611da5565b5b5f60149054906101000a900460ff16600581111561078357610782611da5565b5b146107c3576040517f08c379a00000000000000000000000000000000000000000000000000000000081526004016107ba9061230d565b60405180910390fd5b6002600354815481106107d9576107d861218c565b5b905f5260205f20906002020160010154905090565b6060600282815481106108045761080361218c565b5b905f5260205f2090600202015f01805461081d9061226d565b80601f01602080910402602001604051908101604052809291908181526020018280546108499061226d565b80156108945780601f1061086b57610100808354040283529160200191610894565b820191905f5260205f20905b81548152906001019060200180831161087757829003601f168201915b50505050509050919050565b60015f3373ffffffffffffffffffffffffffffffffffffffff1673ffffffffffffffffffffffffffffffffffffffff1681526020019081526020015f205f015f9054906101000a900460ff1661092b576040517f08c379a000000000000000000000000000000000000000000000000000000000815260040161092290612078565b60405180910390fd5b6001600581111561093f5761093e611da5565b5b5f60149054906101000a900460ff1660058111156109605761095f611da5565b5b146109a0576040517f08c379a00000000000000000000000000000000000000000000000000000000081526004016109979061239b565b60405180910390fd5b600260405180604001604052808381526020015f815250908060018154018082558091505060019003905f5260205f2090600202015f909190919091505f820151815f0190816109f09190612556565b506020820151816001015550507fdcd2e8cd237900037efa515c36a3caa6812766647c16535dd5fc3c6fd641154c6001600280549050610a309190612625565b604051610a3d9190611bf9565b60405180910390a150565b5f8054906101000a900473ffffffffffffffffffffffffffffffffffffffff1673ffffffffffffffffffffffffffffffffffffffff163373ffffffffffffffffffffffffffffffffffffffff1614610ad5576040517f08c379a0000000000000000000000000000000000000000000000000000000008152600401610acc906126c8565b60405180910390fd5b60046005811115610ae957610ae8611da5565b5b5f60149054906101000a900460ff166005811115610b0a57610b09611da5565b5b14610b4a576040517f08c379a0000000000000000000000000000000000000000000000000000000008152600401610b4190612756565b60405180910390fd5b600580811115610b5d57610b5c611da5565b5b5f60149054906101000a900460ff166005811115610b7e57610b7d611da5565b5b10610bbe576040517f08c379a0000000000000000000000000000000000000000000000000000000008152600401610bb5906127e4565b60405180910390fd5b5f805f5b600280549050811015610c37578260028281548110610be457610be361218c565b5b905f5260205f209060020201600101541115610c245760028181548110610c0e57610c0d61218c565b5b905f5260205f2090600202016001015492508091505b8080610c2f90612802565b915050610bc2565b508060038190555060055f60146101000a81548160ff02191690836005811115610c6457610c63611da5565b5b02179055507fa1f82a14ea162408785ef8969f7cf08b2bb72b081f8d4e2eda49846e52f439c660405160405180910390a17f9474022b1c97b70d3479aafe8672c447d1837ad99ae1f735eced168a65252d1660045f60149054906101000a900460ff16604051610cd5929190612849565b60405180910390a15050565b6060600580811115610cf657610cf5611da5565b5b5f60149054906101000a900460ff166005811115610d1757610d16611da5565b5b14610d57576040517f08c379a0000000000000000000000000000000000000000000000000000000008152600401610d4e9061230d565b60405180910390fd5b600260035481548110610d6d57610d6c61218c565b5b905f5260205f2090600202015f018054610d869061226d565b80601f0160208091040260200160405190810160405280929190818152602001828054610db29061226d565b8015610dfd5780601f10610dd457610100808354040283529160200191610dfd565b820191905f5260205f20905b815481529060010190602001808311610de057829003601f168201915b5050505050905090565b5f8054906101000a900473ffffffffffffffffffffffffffffffffffffffff1673ffffffffffffffffffffffffffffffffffffffff163373ffffffffffffffffffffffffffffffffffffffff1614610e94576040517f08c379a0000000000000000000000000000000000000000000000000000000008152600401610e8b906126c8565b60405180910390fd5b5f6005811115610ea757610ea6611da5565b5b5f60149054906101000a900460ff166005811115610ec857610ec7611da5565b5b14610f08576040517f08c379a0000000000000000000000000000000000000000000000000000000008152600401610eff90612906565b60405180910390fd5b60015f8273ffffffffffffffffffffffffffffffffffffffff1673ffffffffffffffffffffffffffffffffffffffff1681526020019081526020015f205f015f9054906101000a900460ff1615610f94576040517f08c379a0000000000000000000000000000000000000000000000000000000008152600401610f8b9061296e565b60405180910390fd5b6001805f8373ffffffffffffffffffffffffffffffffffffffff1673ffffffffffffffffffffffffffffffffffffffff1681526020019081526020015f205f015f6101000a81548160ff0219169083151502179055505f60015f8373ffffffffffffffffffffffffffffffffffffffff1673ffffffffffffffffffffffffffffffffffffffff1681526020019081526020015f205f0160016101000a81548160ff0219169083151502179055505f60015f8373ffffffffffffffffffffffffffffffffffffffff1673ffffffffffffffffffffffffffffffffffffffff1681526020019081526020015f20600101819055508060015f8373ffffffffffffffffffffffffffffffffffffffff1673ffffffffffffffffffffffffffffffffffffffff1681526020019081526020015f206002015f6101000a81548173ffffffffffffffffffffffffffffffffffffffff021916908373ffffffffffffffffffffffffffffffffffffffff1602179055507f42b360c89ba65a59ac7fec024a7bbb2c21d84b5abe5b5178ba0d7e34653a8130816040516111339190611fef565b60405180910390a150565b5f600280549050905090565b5f8054906101000a900473ffffffffffffffffffffffffffffffffffffffff1673ffffffffffffffffffffffffffffffffffffffff163373ffffffffffffffffffffffffffffffffffffffff16146111d7576040517f08c379a00000000000000000000000000000000000000000000000000000000081526004016111ce906126c8565b60405180910390fd5b600160058111156111eb576111ea611da5565b5b5f60149054906101000a900460ff16600581111561120c5761120b611da5565b5b1461124c576040517f08c379a00000000000000000000000000000000000000000000000000000000081526004016112439061239b565b60405180910390fd5b60025f60146101000a81548160ff0219169083600581111561127157611270611da5565b5b02179055507ff629233eb3546085ffcbbb79c947a38b98b14a6915bcc004a0c1a34ae38c29d860405160405180910390a17f9474022b1c97b70d3479aafe8672c447d1837ad99ae1f735eced168a65252d1660015f60149054906101000a900460ff166040516112e2929190612849565b60405180910390a1565b5f60149054906101000a900460ff1681565b6001602052805f5260405f205f91509050805f015f9054906101000a900460ff1690805f0160019054906101000a900460ff1690806001015490806002015f9054906101000a900473ffffffffffffffffffffffffffffffffffffffff16905084565b5f8054906101000a900473ffffffffffffffffffffffffffffffffffffffff1673ffffffffffffffffffffffffffffffffffffffff163373ffffffffffffffffffffffffffffffffffffffff16146113ee576040517f08c379a00000000000000000000000000000000000000000000000000000000081526004016113e5906126c8565b60405180910390fd5b6003600581111561140257611401611da5565b5b5f60149054906101000a900460ff16600581111561142357611422611da5565b5b1461142c575f80fd5b60045f60146101000a81548160ff0219169083600581111561145157611450611da5565b5b02179055507f86a7e3ed2917a2b5f100160b6e558c8e7ae6e4fb8f2673d860d3f11b4f345e7260405160405180910390a17f9474022b1c97b70d3479aafe8672c447d1837ad99ae1f735eced168a65252d1660035f60149054906101000a900460ff166040516114c2929190612849565b60405180910390a1565b60606002805480602002602001604051908101604052809291908181526020015f905b828210156115b8578382905f5260205f2090600202016040518060400160405290815f8201805461151f9061226d565b80601f016020809104026020016040519081016040528092919081815260200182805461154b9061226d565b80156115965780601f1061156d57610100808354040283529160200191611596565b820191905f5260205f20905b81548152906001019060200180831161157957829003601f168201915b50505050508152602001600182015481525050815260200190600101906114ef565b50505050905090565b5f60015f8373ffffffffffffffffffffffffffffffffffffffff1673ffffffffffffffffffffffffffffffffffffffff1681526020019081526020015f205f015f9054906101000a900460ff169050919050565b5f8054906101000a900473ffffffffffffffffffffffffffffffffffffffff1673ffffffffffffffffffffffffffffffffffffffff163373ffffffffffffffffffffffffffffffffffffffff16146116a2576040517f08c379a0000000000000000000000000000000000000000000000000000000008152600401611699906126c8565b60405180910390fd5b5f60058111156116b5576116b4611da5565b5b5f60149054906101000a900460ff1660058111156116d6576116d5611da5565b5b14611716576040517f08c379a000000000000000000000000000000000000000000000000000000000815260040161170d90612906565b60405180910390fd5b60015f60146101000a81548160ff0219169083600581111561173b5761173a611da5565b5b02179055507f65b51a6e225dbda234ac3ca54831842456809aa60205dd84e758670106b4a6f360405160405180910390a17f9474022b1c97b70d3479aafe8672c447d1837ad99ae1f735eced168a65252d165f8060149054906101000a900460ff166040516117ab929190612849565b60405180910390a1565b5f6005808111156117c9576117c8611da5565b5b5f60149054906101000a900460ff1660058111156117ea576117e9611da5565b5b1461182a576040517f08c379a00000000000000000000000000000000000000000000000000000000081526004016118219061230d565b60405180910390fd5b600354905090565b5f8054906101000a900473ffffffffffffffffffffffffffffffffffffffff1673ffffffffffffffffffffffffffffffffffffffff163373ffffffffffffffffffffffffffffffffffffffff16146118bf576040517f08c379a00000000000000000000000000000000000000000000000000000000081526004016118b6906126c8565b60405180910390fd5b600260058111156118d3576118d2611da5565b5b5f60149054906101000a900460ff1660058111156118f4576118f3611da5565b5b14611934576040517f08c379a000000000000000000000000000000000000000000000000000000000815260040161192b906129fc565b60405180910390fd5b60035f60146101000a81548160ff0219169083600581111561195957611958611da5565b5b02179055507ffca8377aff3a08252b769c58e6769a534922eabaaf9952691ea9cfcaed41fbd860405160405180910390a17f9474022b1c97b70d3479aafe8672c447d1837ad99ae1f735eced168a65252d165f8060149054906101000a900460ff166040516119c9929190612849565b60405180910390a1565b5f8054906101000a900473ffffffffffffffffffffffffffffffffffffffff1681565b5f8060149054906101000a900460ff16905090565b5f604051905090565b5f80fd5b5f80fd5b5f819050919050565b611a2e81611a1c565b8114611a38575f80fd5b50565b5f81359050611a4981611a25565b92915050565b5f60208284031215611a6457611a63611a14565b5b5f611a7184828501611a3b565b91505092915050565b5f81519050919050565b5f82825260208201905092915050565b5f5b83811015611ab1578082015181840152602081019050611a96565b5f8484015250505050565b5f601f19601f8301169050919050565b5f611ad682611a7a565b611ae08185611a84565b9350611af0818560208601611a94565b611af981611abc565b840191505092915050565b611b0d81611a1c565b82525050565b5f6040820190508181035f830152611b2b8185611acc565b9050611b3a6020830184611b04565b9392505050565b5f73ffffffffffffffffffffffffffffffffffffffff82169050919050565b5f611b6a82611b41565b9050919050565b611b7a81611b60565b8114611b84575f80fd5b50565b5f81359050611b9581611b71565b92915050565b5f60208284031215611bb057611baf611a14565b5b5f611bbd84828501611b87565b91505092915050565b5f8115159050919050565b611bda81611bc6565b82525050565b5f602082019050611bf35f830184611bd1565b92915050565b5f602082019050611c0c5f830184611b04565b92915050565b5f6020820190508181035f830152611c2a8184611acc565b905092915050565b5f80fd5b5f80fd5b7f4e487b71000000000000000000000000000000000000000000000000000000005f52604160045260245ffd5b611c7082611abc565b810181811067ffffffffffffffff82111715611c8f57611c8e611c3a565b5b80604052505050565b5f611ca1611a0b565b9050611cad8282611c67565b919050565b5f67ffffffffffffffff821115611ccc57611ccb611c3a565b5b611cd582611abc565b9050602081019050919050565b828183375f83830152505050565b5f611d02611cfd84611cb2565b611c98565b905082815260208101848484011115611d1e57611d1d611c36565b5b611d29848285611ce2565b509392505050565b5f82601f830112611d4557611d44611c32565b5b8135611d55848260208601611cf0565b91505092915050565b5f60208284031215611d7357611d72611a14565b5b5f82013567ffffffffffffffff811115611d9057611d8f611a18565b5b611d9c84828501611d31565b91505092915050565b7f4e487b71000000000000000000000000000000000000000000000000000000005f52602160045260245ffd5b60068110611de357611de2611da5565b5b50565b5f819050611df382611dd2565b919050565b5f611e0282611de6565b9050919050565b611e1281611df8565b82525050565b5f602082019050611e2b5f830184611e09565b92915050565b611e3a81611b60565b82525050565b5f608082019050611e535f830187611bd1565b611e606020830186611bd1565b611e6d6040830185611b04565b611e7a6060830184611e31565b95945050505050565b5f81519050919050565b5f82825260208201905092915050565b5f819050602082019050919050565b5f82825260208201905092915050565b5f611ec682611a7a565b611ed08185611eac565b9350611ee0818560208601611a94565b611ee981611abc565b840191505092915050565b611efd81611a1c565b82525050565b5f604083015f8301518482035f860152611f1d8282611ebc565b9150506020830151611f326020860182611ef4565b508091505092915050565b5f611f488383611f03565b905092915050565b5f602082019050919050565b5f611f6682611e83565b611f708185611e8d565b935083602082028501611f8285611e9d565b805f5b85811015611fbd5784840389528151611f9e8582611f3d565b9450611fa983611f50565b925060208a01995050600181019050611f85565b50829750879550505050505092915050565b5f6020820190508181035f830152611fe78184611f5c565b905092915050565b5f6020820190506120025f830184611e31565b92915050565b7f7468652063616c6c6572206f6620746869732066756e6374696f6e206d7573745f8201527f2062652061207265676973746572656420766f74657200000000000000000000602082015250565b5f612062603683611a84565b915061206d82612008565b604082019050919050565b5f6020820190508181035f83015261208f81612056565b9050919050565b7f746869732066756e6374696f6e2063616e2062652063616c6c6564206f6e6c795f8201527f20647572696e6720766f74696e672073657373696f6e00000000000000000000602082015250565b5f6120f0603683611a84565b91506120fb82612096565b604082019050919050565b5f6020820190508181035f83015261211d816120e4565b9050919050565b7f7468652063616c6c65722068617320616c726561647920766f746564000000005f82015250565b5f612158601c83611a84565b915061216382612124565b602082019050919050565b5f6020820190508181035f8301526121858161214c565b9050919050565b7f4e487b71000000000000000000000000000000000000000000000000000000005f52603260045260245ffd5b7f4e487b71000000000000000000000000000000000000000000000000000000005f52601160045260245ffd5b5f6121f082611a1c565b91506121fb83611a1c565b9250828201905080821115612213576122126121b9565b5b92915050565b5f60408201905061222c5f830185611e31565b6122396020830184611b04565b9392505050565b7f4e487b71000000000000000000000000000000000000000000000000000000005f52602260045260245ffd5b5f600282049050600182168061228457607f821691505b60208210810361229757612296612240565b5b50919050565b7f746869732066756e6374696f6e2063616e2062652063616c6c6564206f6e6c795f8201527f20616674657220766f7465732074616c6c696564000000000000000000000000602082015250565b5f6122f7603483611a84565b91506123028261229d565b604082019050919050565b5f6020820190508181035f830152612324816122eb565b9050919050565b7f746869732066756e6374696f6e2063616e2062652063616c6c6564206f6e6c795f8201527f20647572696e672070726f706f73616c7320726567697374726174696f6e0000602082015250565b5f612385603e83611a84565b91506123908261232b565b604082019050919050565b5f6020820190508181035f8301526123b281612379565b9050919050565b5f819050815f5260205f209050919050565b5f6020601f8301049050919050565b5f82821b905092915050565b5f600883026124157fffffffffffffffffffffffffffffffffffffffffffffffffffffffffffffffff826123da565b61241f86836123da565b95508019841693508086168417925050509392505050565b5f819050919050565b5f61245a61245561245084611a1c565b612437565b611a1c565b9050919050565b5f819050919050565b61247383612440565b61248761247f82612461565b8484546123e6565b825550505050565b5f90565b61249b61248f565b6124a681848461246a565b505050565b5b818110156124c9576124be5f82612493565b6001810190506124ac565b5050565b601f82111561250e576124df816123b9565b6124e8846123cb565b810160208510156124f7578190505b61250b612503856123cb565b8301826124ab565b50505b505050565b5f82821c905092915050565b5f61252e5f1984600802612513565b1980831691505092915050565b5f612546838361251f565b9150826002028217905092915050565b61255f82611a7a565b67ffffffffffffffff81111561257857612577611c3a565b5b612582825461226d565b61258d8282856124cd565b5f60209050601f8311600181146125be575f84156125ac578287015190505b6125b6858261253b565b86555061261d565b601f1984166125cc866123b9565b5f5b828110156125f3578489015182556001820191506020850194506020810190506125ce565b86831015612610578489015161260c601f89168261251f565b8355505b6001600288020188555050505b505050505050565b5f61262f82611a1c565b915061263a83611a1c565b9250828203905081811115612652576126516121b9565b5b92915050565b7f7468652063616c6c6572206f6620746869732066756e6374696f6e206d7573745f8201527f206265207468652061646d696e6973747261746f720000000000000000000000602082015250565b5f6126b2603583611a84565b91506126bd82612658565b604082019050919050565b5f6020820190508181035f8301526126df816126a6565b9050919050565b7f746869732066756e6374696f6e2063616e2062652063616c6c6564206f6e6c795f8201527f20616674657220766f74696e672073657373696f6e0000000000000000000000602082015250565b5f612740603583611a84565b915061274b826126e6565b604082019050919050565b5f6020820190508181035f83015261276d81612734565b9050919050565b7f746869732066756e6374696f6e2063616e2062652063616c6c6564206f6e6c795f8201527f206265666f726520766f7465732074616c6c6965640000000000000000000000602082015250565b5f6127ce603583611a84565b91506127d982612774565b604082019050919050565b5f6020820190508181035f8301526127fb816127c2565b9050919050565b5f61280c82611a1c565b91507fffffffffffffffffffffffffffffffffffffffffffffffffffffffffffffffff820361283e5761283d6121b9565b5b600182019050919050565b5f60408201905061285c5f830185611e09565b6128696020830184611e09565b9392505050565b7f746869732066756e6374696f6e2063616e2062652063616c6c6564206f6e6c795f8201527f206265666f72652070726f706f73616c7320726567697374726174696f6e206860208201527f6173207374617274656400000000000000000000000000000000000000000000604082015250565b5f6128f0604a83611a84565b91506128fb82612870565b606082019050919050565b5f6020820190508181035f83015261291d816128e4565b9050919050565b7f74686520766f74657220697320616c72656164792072656769737465726564005f82015250565b5f612958601f83611a84565b915061296382612924565b602082019050919050565b5f6020820190508181035f8301526129858161294c565b9050919050565b7f746869732066756e6374696f6e2063616e2062652063616c6c6564206f6e6c795f8201527f2061667465722070726f706f73616c7320726567697374726174696f6e000000602082015250565b5f6129e6603d83611a84565b91506129f18261298c565b604082019050919050565b5f6020820190508181035f830152612a13816129da565b905091905056fea26469706673582212206de47c1b418134ca33c8596a7f14303c646c51454131cf96f072d19702eacbff64736f6c63430008150033",
  "immutableReferences": {},
  "source": "// SPDX-License-Identifier: MIT\r\npragma solidity ^0.8.18;\r\n\r\ncontract SimpleVoting {\r\n    struct Proposal {\r\n        string description;\r\n        uint voteCount;\r\n    }\r\n\r\n    struct Voter {\r\n        bool isRegistered;\r\n        bool hasVoted;\r\n        uint votedProposalId;\r\n        address addr;\r\n    }\r\n\r\n    enum WorkflowStatus {\r\n        RegisteringVoters,\r\n        ProposalsRegistrationStarted,\r\n        ProposalsRegistrationEnded,\r\n        VotingSessionStarted,\r\n        VotingSessionEnded,\r\n        VotesTallied\r\n    }\r\n\r\n    address public administrator;\r\n\r\n    WorkflowStatus public workflowStatus;\r\n\r\n    mapping(address => Voter) public voters;\r\n    // uint32 public voterCount = 0; // Counter for the number of registered voters\r\n    // address[] public voterAddresses; // Array to keep track of all registered voter addresses\r\n\r\n    Proposal[] public proposals;\r\n\r\n    uint private winningProposalId;\r\n\r\n    modifier onlyAdministrator() {\r\n        require(\r\n            msg.sender == administrator,\r\n            \"the caller of this function must be the administrator\"\r\n        );\r\n        _;\r\n    }\r\n\r\n    modifier onlyRegisteredVoter() {\r\n        require(\r\n            voters[msg.sender].isRegistered,\r\n            \"the caller of this function must be a registered voter\"\r\n        );\r\n        _;\r\n    }\r\n\r\n    modifier onlyDuringVotersRegistration() {\r\n        require(\r\n            workflowStatus == WorkflowStatus.RegisteringVoters,\r\n            \"this function can be called only before proposals registration has started\"\r\n        );\r\n        _;\r\n    }\r\n\r\n    modifier onlyDuringProposalsRegistration() {\r\n        require(\r\n            workflowStatus == WorkflowStatus.ProposalsRegistrationStarted,\r\n            \"this function can be called only during proposals registration\"\r\n        );\r\n        _;\r\n    }\r\n\r\n    modifier onlyAfterProposalsRegistrationEnded() {\r\n        require(\r\n            workflowStatus == WorkflowStatus.ProposalsRegistrationEnded,\r\n            \"this function can be called only after proposals registration\"\r\n        );\r\n        _;\r\n    }\r\n\r\n    modifier onlyAfterVotingSessionStarted() {\r\n        require (\r\n            workflowStatus == WorkflowStatus.VotingSessionStarted\r\n        );\r\n        _;\r\n    }\r\n\r\n    modifier onlyDuringVotingSession {\r\n        require(\r\n            workflowStatus == WorkflowStatus.VotingSessionStarted,\r\n            \"this function can be called only during voting session\"\r\n        );\r\n        _;\r\n    }\r\n\r\n    modifier onlyAfterVotingSession {\r\n        require(\r\n            workflowStatus == WorkflowStatus.VotingSessionEnded,\r\n            \"this function can be called only after voting session\"\r\n        );\r\n        _;\r\n    }\r\n\r\n    modifier onlyBeforeVotesTallied {\r\n        require(\r\n            workflowStatus < WorkflowStatus.VotesTallied,\r\n            \"this function can be called only before votes tallied\"\r\n        );\r\n        _;\r\n    }\r\n\r\n    modifier onlyAfterVotesTallied {\r\n        require(\r\n            workflowStatus == WorkflowStatus.VotesTallied,\r\n            \"this function can be called only after votes tallied\"\r\n        );\r\n        _;\r\n    }\r\n\r\n    event VoterRegisteredEvent(address voterAddress);\r\n    event ProposalsRegistrationStartedEvent();\r\n    event ProposalsRegistrationEndedEvent();\r\n    event ProposalRegisteredEvent(uint proposalId);\r\n    event VotingSessionStartedEvent();\r\n    event VotingSessionEndedEvent();\r\n    event VotedEvent(address voter, uint proposalId);\r\n    event VotesTalliedEvent();\r\n\r\n    event WorkflowStatusChangeEvent(\r\n        WorkflowStatus previousStatus,\r\n        WorkflowStatus newStatus\r\n    );\r\n\r\n    constructor() {\r\n        administrator = msg.sender;\r\n        workflowStatus = WorkflowStatus.RegisteringVoters;\r\n    }\r\n\r\n    function registerVoter(\r\n        address _voterAddress\r\n    ) public onlyAdministrator onlyDuringVotersRegistration {\r\n        require(\r\n            !voters[_voterAddress].isRegistered,\r\n            \"the voter is already registered\"\r\n        );\r\n\r\n        voters[_voterAddress].isRegistered = true;\r\n        voters[_voterAddress].hasVoted = false;\r\n        voters[_voterAddress].votedProposalId = 0;\r\n        voters[_voterAddress].addr = _voterAddress;\r\n\r\n        // voterCount++;\r\n        // voterAddresses.push(_voterAddress); // Add address to the array\r\n\r\n        emit VoterRegisteredEvent(_voterAddress);\r\n    }\r\n\r\n    function startProposalsRegistration()\r\n        public\r\n        onlyAdministrator\r\n        onlyDuringVotersRegistration\r\n    {\r\n        workflowStatus = WorkflowStatus.ProposalsRegistrationStarted;\r\n\r\n        emit ProposalsRegistrationStartedEvent();\r\n        emit WorkflowStatusChangeEvent(\r\n            WorkflowStatus.RegisteringVoters,\r\n            workflowStatus\r\n        );\r\n    }\r\n\r\n    function endProposalsRegistration()\r\n        public\r\n        onlyAdministrator\r\n        onlyDuringProposalsRegistration\r\n    {\r\n        workflowStatus = WorkflowStatus.ProposalsRegistrationEnded;\r\n\r\n        emit ProposalsRegistrationEndedEvent();\r\n        emit WorkflowStatusChangeEvent(\r\n            WorkflowStatus.ProposalsRegistrationStarted,\r\n            workflowStatus\r\n        );\r\n    }\r\n\r\n    function startVotingSession()\r\n        public\r\n        onlyAdministrator\r\n        onlyAfterProposalsRegistrationEnded\r\n    {\r\n        workflowStatus = WorkflowStatus.VotingSessionStarted;\r\n\r\n        emit VotingSessionStartedEvent();\r\n        emit WorkflowStatusChangeEvent(\r\n            WorkflowStatus.RegisteringVoters,\r\n            workflowStatus\r\n        );\r\n    }\r\n\r\n    function endVotingSession()\r\n        public\r\n        onlyAdministrator\r\n        onlyAfterVotingSessionStarted\r\n    {\r\n        workflowStatus = WorkflowStatus.VotingSessionEnded;\r\n\r\n        emit VotingSessionEndedEvent();\r\n        emit WorkflowStatusChangeEvent(\r\n            WorkflowStatus.VotingSessionStarted,\r\n            workflowStatus\r\n        );\r\n    }\r\n\r\n    function registerProposal(\r\n        string memory proposalDescription\r\n    ) public onlyRegisteredVoter onlyDuringProposalsRegistration {\r\n        proposals.push(\r\n            Proposal({description: proposalDescription, voteCount: 0})\r\n        );\r\n\r\n        emit ProposalRegisteredEvent(proposals.length - 1);\r\n    }\r\n\r\n    function vote(\r\n        uint proposalId\r\n    ) public onlyRegisteredVoter onlyDuringVotingSession {\r\n        require(!voters[msg.sender].hasVoted, \"the caller has already voted\");\r\n\r\n        voters[msg.sender].hasVoted = true;\r\n        voters[msg.sender].votedProposalId = proposalId;\r\n\r\n        proposals[proposalId].voteCount += 1;\r\n\r\n        emit VotedEvent(msg.sender, proposalId);\r\n    }\r\n\r\n    function tallyVotes()\r\n        public\r\n        onlyAdministrator\r\n        onlyAfterVotingSession\r\n        onlyBeforeVotesTallied\r\n    {\r\n        uint winningVoteCount = 0;\r\n        uint winningProposalIndex = 0;\r\n\r\n        for (uint i = 0; i < proposals.length; i++) {\r\n            if (proposals[i].voteCount > winningVoteCount) {\r\n                winningVoteCount = proposals[i].voteCount;\r\n                winningProposalIndex = i;\r\n            }\r\n        }\r\n\r\n        winningProposalId = winningProposalIndex;\r\n        workflowStatus = WorkflowStatus.VotesTallied;\r\n\r\n        emit VotesTalliedEvent();\r\n        emit WorkflowStatusChangeEvent(\r\n            WorkflowStatus.VotingSessionEnded,\r\n            workflowStatus\r\n        );\r\n    }\r\n\r\n    // function getVotersNumber() public view returns (uint32) {\r\n    //     return voterCount;\r\n    // }\r\n\r\n    // function getVoters() public view returns (Voter[] memory) {\r\n    //     Voter[] memory allVoters = new Voter[](voterAddresses.length);\r\n    //     for (uint i = 0; i < voterAddresses.length; i++) {\r\n    //         allVoters[i] = voters[voterAddresses[i]];\r\n    //     }\r\n    //     return allVoters;\r\n    // }\r\n\r\n    function getAllProposals() public view returns (Proposal[] memory) {\r\n        return proposals;\r\n    }\r\n\r\n    function getProposalsNumber() public view returns (uint) {\r\n        return proposals.length;\r\n    }\r\n\r\n    function getProposalDescription(uint index) public view returns (string memory) {\r\n        return proposals[index].description;\r\n    }\r\n\r\n    function getWinningProposalId()\r\n        public\r\n        view\r\n        onlyAfterVotesTallied\r\n        returns (uint)\r\n    {\r\n        return winningProposalId;\r\n    }\r\n\r\n    function getWinningProposalDescription()\r\n        public\r\n        view\r\n        onlyAfterVotesTallied\r\n        returns (string memory)\r\n    {\r\n        return proposals[winningProposalId].description;\r\n    }\r\n\r\n    function getWinningProposalVoteCounts()\r\n        public\r\n        view\r\n        onlyAfterVotesTallied\r\n        returns (uint)\r\n    {\r\n        return proposals[winningProposalId].voteCount;\r\n    }\r\n\r\n    function isRegisteredVoter(\r\n        address _voterAddress\r\n    ) public view returns (bool) {\r\n        return voters[_voterAddress].isRegistered;\r\n    }\r\n\r\n    function isAdministrator(address _address) public view returns (bool) {\r\n        return _address == administrator;\r\n    }\r\n\r\n    function getWorkflowStatus() public view returns (WorkflowStatus) {\r\n        return workflowStatus;\r\n    }\r\n}\r\n",
  "sourcePath": "C:\\Users\\yqb18196\\Sites\\voting-dapp\\truffle\\contracts\\SimpleVoting.sol",
  "compiler": {
    "name": "solc",
    "version": "0.8.21+commit.d9974bed.Emscripten.clang"
  },
  "schemaVersion": "3.4.16",
  "updatedAt": "2024-07-23T13:55:57.487Z",
  "networkType": "ethereum",
  "devdoc": {
    "kind": "dev",
    "methods": {},
    "version": 1
  },
  "userdoc": {
    "kind": "user",
    "methods": {},
    "version": 1
  }
}